:10820000000002208D870000F9870000F987000038
:10821000F9870000F9870000F987000000000000DE
:1082200000000000000000000000000041A200006B
:10823000F987000000000000D1A2000035A3000073
:10824000F9870000F9870000F9870000F98700002E
:10825000F987000000000000F9870000F98700009E
:10826000F9870000F9870000F9870000F98700000E
:10827000F9870000F9870000F9870000F9870000FE
:10828000F9870000F9870000F9870000ED840000FD
:10829000F9870000F9870000F9870000ADF90000B8
:1082A000F9870000F9870000F9870000F9870000CE
:1082B000F9870000F9870000F9870000F9870000BE
:1082C000F9870000F9870000F9870000F9870000AE
:1082D000F9870000F9870000F9870000B9650100FF
:1082E000F9870000F9870000F9870000115A0100A2
:1082F000F987000000000000F9870000F9870000FE
:10830000F9870000F9870000F9870000B9F900003B
:10831000C5F9000053C30100F9870000F987000088
:10832000F98700005D270100F9870000F987000048
:10833000F987000000000000D1F9000000000000F3
:10834000CD7B0100F9870000F9870000F987000064
:10835000F987000000000000F9870000F98700009D
:10836000F9870000F9870000F9870000F98700000D
:10837000F9870000F9870000F9870000F9870000FD
:10838000F9870000F9870000F9870000000000006D
:10839000F9870000F9870000F9870000F9870000DD
:1083A000F9870000F9870000F9870000000000004D
:1083B000F9870000F98700000000000000000000BD
:1083C00000000000000000000000000000000000AD
:1083D00000000000F9870000F9870000F98700001D
:1083E000095901001D5A0100F9870000F9870000B2
:1083F000F98700000348044B834202D0034B03B1CA
:108400001847704728170020281700200000000098
:108410000548064B1B1AD90F01EBA301491002D0E6
:10842000034B03B118477047281700202817002076
:108430000000000010B5064C237843B9FFF7DAFFBF
:10844000044B13B10448AFF300800123237010BD27
:10845000281700200000000070D3020008B5044B6C
:108460001BB104490448AFF30080BDE80840CFE7E2
:10847000000000002C17002070D30200A3F5803A02
:10848000704700BF154B002B08BF114B9D46FFF7EF
:10849000F5FF00218B460F461148124A121A16F0BA
:1084A000DBF90C4B002B00D098470B4B002B00D076
:1084B00098470020002104000D000B4818F07CF9BB
:1084C00015F0A8FF200029000DF0DAFD18F062F980
:1084D0000000080000000000000000000000022072
:1084E0002817002070E40020190F02004FF04023ED
:1084F00010B5D3F8E020D0070FD50122C3F8E02053
:10850000D3F8C0389B1A18BF0123934002221340AE
:10851000012B38D111F01AFC10BDD3F8E0209107DF
:108520000AD50222C3F8E020D3F8C438013B18BFB3
:10853000012393400422EAE7D3F8E020520709D54B
:108540000422C3F8E020D3F8C838013B18BF012348
:108550000122DCE7D3F8E04014F0080409D0082237
:10856000C3F8E020D3F8CC38013B18BF0123DB006F
:10857000CDE7D3F8A020C3F8E0200A4815F0BAFFF1
:1085800022462346C3E7022B02D111F0DCFBC3E7EE
:10859000042B02D111F0D4FBBEE7082BBCD111F0A3
:1085A000CCFBB9E7C8300200820700F001034FF0AE
:1085B00040224FEA4303D16848BF43F004036FF001
:1085C0000600D0609360D160704700002DE9F04153
:1085D00059204FF0804416218822C4F80001C4F8C5
:1085E0000011C4F80021D4F80031002BF5D0434825
:1085F000DFF81C8105F012FB002211463F4805F010
:10860000B5FAA36D3E4823F0FF03A365A36D0025D3
:1086100043F02203A3654FF4E131C4F8005107F0A1
:10862000FBFA374805F048FE4FF040233822C3F8E4
:108630004024012707FA05F63146002240464FF054
:10864000402405F063FD29464FF00112404605F035
:1086500073FDD4F8D43001351E43042DC4F8D46022
:10866000E8D1284B28484FF400221A60602283F892
:1086700013234021012205F049FD4FF08043C4F847
:1086800098789A6B214802F07F429A639A6B42F085
:10869000331242F44C529A63DA6B22F47022DA639A
:1086A000DA6B42F41022DA634FF48051022205F0B3
:1086B0005AFD0020FFF778FF20460122022105F035
:1086C00025FD294620460025012205F01FFD2046F4
:1086D000C4F80C580122082105F018FD2046C4F802
:1086E00014580122202105F011FDBDE8F041074892
:1086F00001224FF4004105F009BD00BF913DA05794
:108700000010074000E100E0804000404040004091
:10871000C04000404FF04023D3F80408003818BF91
:10872000012070474FF04023D3F80808003818BFE5
:10873000012070474FF040230122C3F80C287047F6
:108740004FF040230022C3F80C2870474FF040231D
:10875000D3F80C08003818BF012070474FF04023B1
:108760000122C3F8142870474FF040230022C3F8B9
:10877000142870474FF040230122C3F87C2870472B
:108780004FF040230022C3F87C2870471449154A53
:10879000154B9A42BEBF51F8040B42F8040BF8E7A0
:1087A00012484FF0590101604FF0160101604FF07F
:1087B000880101600E48416841F4804141600D48E4
:1087C000416841F002014160416841F004014160AB
:1087D00000F068F805484FF000010160FFF752FE15
:1087E0002CD40200B81100202817002000010040FE
:1087F0000002004000700040FEE700BF08B516F020
:1088000051F9582303604FF0FF3008BD08B516F04A
:1088100049F9582303604FF0FF3008BD08B516F042
:1088200041F9582303604FF0FF3008BD08B516F03A
:1088300039F958230360002008BD08B516F032F955
:10884000582303604FF0FF3008BD000008B505F065
:108850003FFA0E4B0E4A1860136903F00703022B10
:108860001CBF0C4951F82300136A03F00F030133B6
:10887000B0FBF3F0084B186000F5F420074B00F54F
:108880009070B0FBF3F0064B186008BDDC110020BF
:1088900000020040BC110020E411002040420F0003
:1088A000E0110020174AD2F8883043F47003C2F870
:1088B0008830154AD36C23F00F0343F00803D364C8
:1088C000124BD3F8982042F48022C3F898209A687B
:1088D00042F002029A600E4AD2F8041101F0F73118
:1088E000C2F80411D2F8081101F0F731C2F80811EA
:1088F0009A6822F002029A60064A136C23F0F00391
:108900001364704700ED00E000C00040000200402A
:108910000010044000410040006870470B0A0170DD
:1089200043700B0C090E8370C170704743690239A4
:10893000023B8B4283BF4389806A01FB0300002016
:10894000704703687BB11A4612F8011B202908D929
:108950003A29F9D11978302905D102339A4202D146
:108960000260002070474FF0FF30704738B5037940
:108970000446C3B100F13005C26A4078012329469C
:108980000FF0F6F988B9E16A236AA2692071CB1A5F
:10899000934208D2E378022B05D10A446078012380
:1089A00029460FF0E5F9002038BD0120FCE7C2F3AD
:1089B00007238A76CB760378032B01BF120C0A7546
:1089C000120A4A75704738B5C36A8B4205460C4691
:1089D00010D0FFF7CBFF60B922466878012305F17C
:1089E00030010FF0B5F900281CBF4FF0FF34012013
:1089F000EC6238BD0020FCE738B5002303714FF06E
:108A0000FF33C3620446FFF7DEFF00283ED194F82F
:108A10003030B4F82E52EB2B03D01833DBB2012BDD
:108A20002DD84AF655239D4206D11A49082204F151
:108A3000820018F071F840B3B4F83B30B3F5007F12
:108A40001DD194F83D30D3B15A1E1A4217D1E38F8D
:108A5000ABB194F84030013B012B10D8B4F8413051
:108A60006BB1B4F843307F2B06D804F15000FFF708
:108A700053FFB0F5803F02D3B4F8463043B94AF60D
:108A80005520854214BF0320022038BD0420FCE796
:108A90000020FAE7E030020001292DE9F047064600
:108AA0000C4617466FD943698B426CD90378022B69
:108AB0003ED0032B4FD0012B65D101EB5108016A49
:108AC00001EB5821FFF77FFF054630BB06F1300967
:108AD00008F1010AC8F3080814F0010418BF19F8D6
:108AE0000820FBB21EBF02F00F0242EA0313DBB202
:108AF00009F80830316A0123337101EB5A213046FD
:108B0000FFF761FF054640B9CAF3080A44B1C7F34D
:108B1000071709F80A70012333712846BDE8F0876A
:108B200019F80A30C7F3032723F00F031F43F0E7B8
:108B3000016A01EB1421FFF746FF05460028ECD13E
:108B4000640006F1300304F4FF741A191F55C7F3CB
:108B500007275770DFE7016A01EBD411FFF733FFF6
:108B600005460028D9D1A40006F1300304F4FE74B0
:108B700023441846FFF7D0FE014667F31B01184651
:108B8000FFF7CCFEC7E70225C7E7F8B505460E4656
:108B9000FFF7ECFE0446F8B931462846FFF7C6FE5B
:108BA00005F130070646E8624FF400722146384668
:108BB00015F052FE6B899C4204D36889001B18BFD4
:108BC0000120F8BD68780123321939460FF0D0F83A
:108BD0000028F2D10134EDE70120F2E7F8B50446B0
:108BE000FFF7C4FE0546002842D12378032B37D176
:108BF0006779012F34D104F1300601464FF4007239
:108C0000304615F029FE552384F82E32AA2384F825
:108C10002F3252234122722184F8303084F83130CF
:108C2000612384F8323084F8173284F8332084F8D2
:108C3000141284F8151284F81622216904F50670BE
:108C4000FFF76CFEE16804F50770FFF767FEE26965
:108C500060780132E2623B4631460FF089F8657177
:108C60000022607811460FF08FF8003818BF0120FD
:108C7000F8BDF8B500230246451E1C462E2615F801
:108C8000010F202804F101040AD0052808BFE520BF
:108C9000092C02BFCF1801337E72CF1801337872CE
:108CA0000B2CECD10B4400205872D37A03F03F0315
:108CB0000B7202F11C00FFF72FFE0860D38ACB80F5
:108CC000138B8B80F8BD40B10C2904D80A2904D835
:108CD000807801F0D5B90F29FAD1704738B50D4623
:108CE0000446F8B1036813B90920002413E01A7888
:108CF000002AF9D08188DA889142F5D1987801F07C
:108D0000B1F9034680B1236858780FF005F810F0E8
:108D1000010002D124682C6038BD20680021FFF7D3
:108D2000D2FFE1E70920F6E70F201C46F3E7000039
:108D3000F0B5002385B00B600E461546FFF701FE27
:108D40000028C0F20C818A4B53F82040002C00F020
:108D50000881A07801F086F9002800F004813460D1
:108D60002378607805F0FE055BB10EF0D5FFC307F0
:108D700007D40DB1470702D4002005B0F0BD0A208A
:108D8000FBE70023607823700EF0D2FFC60700F1E6
:108D9000EC800DB14107F2D400212046FFF72CFEF4
:108DA000022840F0C4806E4604F5FB7304F23621BD
:108DB00032461846FFF7B0FD10338B4242F8040BE1
:108DC000F7D1002556F8041B002900F0A7802046A3
:108DD000FFF712FE012800F2A280B4F83B30E16AEE
:108DE000B3F5007F40F0A880B4F8466026B904F1DE
:108DF0005400FFF791FD064694F84030A6615A1ED4
:108E0000012AE37000F2988094F83D506581002DAE
:108E100000F092806A1E2A4240F08E80B4F84170C1
:108E200027813A0740F08880B4F8430018B904F16C
:108E30005000FFF771FDE28F002A7DD006FB03FE94
:108E400002EB171CF444604576D3A0EB0C00A8425B
:108E5000B0FBF5F370D3474883426DD84FF6F570F9
:108E600083426BD840F6F575AB428CBF02250125D5
:108E700002330A4401EB0C00032D6361E1612262BD
:108E8000A0625DD1B4F85A203A4355D104F15C0098
:108E9000FFF742FD9B0003F2FF13B6EB532F606216
:108EA0004AD34FF0FF33C4E90333032D4FF080035F
:108EB00063712BD1B4F86030012B27D101312046EA
:108EC000FFF781FD10BBB4F82E2260714AF65523DE
:108ED0009A421BD104F13000FFF71EFD264B984249
:108EE00014D104F50570FFF717FD03F1FF5303F5E7
:108EF00000532033984209D104F50670FFF70CFDAA
:108F0000206104F50770FFF707FDE0601B4A25703C
:108F1000138801339BB21380E3802DE703200135D2
:108F2000042D7FF44FAF042806D1012025E7042843
:108F3000FBD001287FF651AF0D201EE7032597E7F0
:108F4000002FF9D0022D02EB0E004FEA43021BBFA7
:108F5000D21803F00103134603EB52039BE70B20E7
:108F60000BE70C2009E70F2007E7032005E700BF08
:108F700050170020F5FFFF0F525261414C1700209F
:108F800003284B8B04BF8A8A43EA02431846704782
:108F90000129F8B506460C464ED9436999424BD291
:108FA0000378022B29D0032B34D0012B44D101EBC1
:108FB0005105016A01EB5521FFF705FD10B14FF096
:108FC000FF30F8BD6F1C316AC5F30805354401EB6D
:108FD0005721304695F83050FFF7F5FC0028EED1C8
:108FE000C7F30807374497F8303045EA0320E30712
:108FF0004CBF0009C0F30B00E3E7016A01EB142149
:10900000FFF7E1FC0028DAD1640004F4FF74344473
:10901000208ED6E7016A01EBD411FFF7D4FC0028BB
:10902000CDD1A40006F1300004F4FE742044FFF713
:1090300073FC20F07040C4E70120C2E7F8B58668F1
:109040000568002304460361B6B92B78022B01D9C9
:109050006B6A83B92B890BB90220F8BD686A0022BC
:10906000C4E905200028F7D000EB56203035A06178
:10907000E5610020F1E71E466F8932467F02002637
:10908000B742114603D92846FFF750FCE8E72068AD
:10909000FFF77EFF431C024606D00128DCD96B692E
:1090A0009842D9D2F61BEBE70120D6E7F8B50C467B
:1090B000012C0568064611462BD96B69A34228D9B5
:1090C0002AB14FF0FF322846FFF7E6FC38B92146B7
:1090D0003068FFF75DFF2746044608B90020F8BD59
:1090E000012816D0431C16D0002239462846FFF727
:1090F000D3FC0028F3D1D5E90432911E8B4205D26E
:1091000001332B616B7943F001036B71A242DED80E
:10911000E4E70220E3E70120E1E72DE9F8430568F1
:1091200081460F4649B9EE68C6B16B69B34298BF34
:1091300001262B69A3B9002406E02846FFF728FF83
:109140000128044603D801242046BDE8F883421CC8
:1091500054D06B698342F7D83E46EAE70126E8E738
:10916000BE426B6915D1741C9C4228BF0224D9F8F9
:1091700000002146FFF70CFF0128E4D0431C3DD03E
:10918000F0B1D5F80C80B8F1010F02D96B699845A0
:1091900000D3B04644466B690134A34203D8B8F10A
:1091A000010FC8D00224D9F800002146FFF7F0FED5
:1091B00040B10128C7D0013020D04445EBD1BAE7F7
:1091C000002CE6D04FF0FF3221462846FFF764FC22
:1091D00090B957B9D5E90432023A9342EC6010D9FC
:1091E0006B7943F001036B71AEE72246394628469E
:1091F000FFF752FC0028EDD00128A4D14FF0FF3436
:10920000A2E7013B2B61EBE72DE9F843076906680C
:109210002037B7F5001F24BF00238361836904460C
:10922000894673B1C7F30808B8F1000F39D1416915
:109230000133836141B93389B3EB571F31D8002320
:10924000A3610420BDE8F8837389013B13EA572327
:1092500027D13046FFF79CFE0128054601D80220A1
:10926000F0E7421C01D10120ECE77369834212D878
:10927000B9F1000FE3D061692046FFF74EFF0546C4
:10928000A8B10128EBD0431CEDD001463046FFF7D2
:109290007CFC0028E7D1656129463046FFF746FB94
:1092A000A061303646442761E6610020CAE7072006
:1092B000C8E700002DE9F74FD0F8009005460E46AC
:1092C00011F8013B2F2BFAD05C2BF8D00023AB60B8
:1092D00033781F2B6FD905F120074FF02038C7F8DE
:1092E0000480C7F80080C7F8078006F1FF3B002420
:1092F0004FF0080AC6F1020202EB0B031BF8011F34
:10930000202908D92F2901D05C295FD1F25C2F2AAE
:109310005AD05C2A58D01E44002C00F0838095F867
:109320002030E52B04BF052385F82030202969D99A
:109330003378202B8CBF002301239B0085F82B3032
:109340002846D5F800A0FFF779FE044600285BD137
:10935000A9695046FFF737FB0446B8B9E8690378B6
:10936000002B5BD0C37A03F03F03AB71C47A14F0D7
:10937000080404D10B22394617F0CEFB30B100218E
:109380002846FFF741FF04460028E1D095F82B302E
:10939000002C3BD15A073DD4AB79DB0640D52B6975
:1093A00099F80000C3F3080309F130011944FFF7ED
:1093B000E7FDA86093E78023284685F82B3003B0AB
:1093C000BDE8F04FFFF73ABE01339FE72E292BD0BF
:1093D000A24527D9080644BF01F07F01164B174864
:1093E00048BF595CCDE9001214F0C4F9D0B9009916
:1093F000019AA1F16103192B9CBF2039C9B23955DB
:10940000013479E7042399E795F82B30042C01D136
:10941000590705D5204603B0BDE8F08F0424B5E711
:109420000524F7E70624F5E7BAF10B0FFAD0082474
:109430004FF00B0A60E700BF5A5F0200E9300200FC
:1094400038B5056804460420A16911B9F8B90020AF
:1094500038BD2846FFF7B7FAB0B9E3691A78B2B158
:10946000DB7AE52A03F03F03A37107D02E2A05D04B
:109470000F2B03D023F02003082BE8D10021204636
:10948000FFF7C2FE0028DFD00023A361E0E704203D
:10949000FAE770B506680546FFF7D0FD044678B9CF
:1094A000A9693046FFF78FFA044648B9EB691B7883
:1094B000E52B0AD04BB101212846FFF7A5FEEDE7C9
:1094C000042C08BF0724204670BDA9693046FFF769
:1094D0007AFA04460028F6D1E8692022214615F0E0
:1094E000BBF9203555F8043C03CD18605960298834
:1094F000AA789A72198101233371E4E72DE9FF41BB
:10950000CDE9001003A814460391FFF71AFA051ECF
:1095100027DB164F57F825603EB14FF0000847F89B
:10952000258000F097FD86F80080019E56B1EBB2D1
:109530007370B370284600F07FFDA0B1002347F898
:10954000256033704CB101A900226846FFF7F0FB9B
:10955000044601460198FFF7B6FB204604B0BDE87B
:10956000F0810B24F9E70224F7E700BF5017002031
:109570002DE9F04F8FB0144601910546002800F008
:10958000D98002F03F08424602A901A8FFF7D0FBAC
:109590000746002840F0B980029E0199039603A86F
:1095A000FFF788FE20B99DF93730002BB8BF0620A1
:1095B00014F01C0F4DD0002842D0042840F0A580A4
:1095C00003A8FFF766FF002840F09F8048F00808D6
:1095D00018F0080F47D00EF001FC024601460A9829
:1095E0000E30FFF79BF90A9811461630FFF796F9EF
:1095F0000A993078FFF7C4FC2023CB7200220A9925
:1096000004463046FFF7D3F90A9B00221A775A77AF
:109610009A77DA77012333717CB1214603A8D6F813
:109620002C90FFF743FD00286FD149463046FFF7E5
:10963000CAF9013CF460002867D148F0400812E004
:109640009DF8123013F0110F70D16007C0D50820BB
:109650005BE0002859D19DF81230D90664D4A207E6
:1096600001D5DB0762D4F36A0A992B62696230780C
:10967000FFF786FCA860834601F11C00FFF74CF958
:109680000024F388E86005F1280A81462E60AB804B
:1096900085F810806C74EC616C614FF400722146A7
:1096A000504615F0D9F818F0200F31D0B9F1000F5D
:1096B0002ED07389C5F81490B9EB432F4FEA432895
:1096C0000DD959462868FFF763FC01288346A9EBAA
:1096D000080925D9B0F1FF3F24D0C845F1D30020B7
:1096E000C5F818B088B9C9F308038BB1594630469C
:1096F000FFF71CF9E0B100EB5922EA617078012311
:1097000051460EF025FB18B1012000232B600746BF
:1097100002983946FFF7D7FA38460FB0BDE8F08F08
:109720000220DDE70120DBE70420EEE70720ECE77D
:109730000220EAE70927EFE72DE9F04F9A4687B0C4
:1097400000238946CAF8003005A904469046FFF771
:10975000C5FA074608B9677C27B105983946FFF76F
:10976000B2FA0AE0237C059D13F00103029308D1AD
:1097700007212846FFF7A7FA0727384607B0BDE8B4
:10978000F08F6369E668F61A464504F1280328BF9E
:109790004646019316B931462846E0E76369C3F3AC
:1097A0000802002A77D16A89013A12EA53221BD1B2
:1097B0004BB9A06801280DD8022161742846FFF733
:1097C00082FA0227D9E7A16920680392FFF7E0FB3C
:1097D000039AEFE7431C06D1012161742846FFF785
:1097E00072FA029FC9E7A061A1692846FFF79EF8B7
:1097F0000028E1D0B6F5007F02EB00082FD369897D
:1098000002EB562088424FEA562B88BFA1EB020B91
:1098100068785B46424649460EF09AFA0028DBD14A
:1098200094F91020002A0CDAE069A0EB08005845F2
:1098300007D24FF4007204F1280109EB402015F023
:10984000A1FB4FEA4B28DAF800304344CAF8003055
:1098500063694344A6EB0806C14463619AE7E26981
:10986000424516D094F910306878002B09DA019936
:1098700001230EF07DFA0028AED1237C03F07F0394
:10988000237401996878012342460EF061FA00289A
:10989000A2D1C4F81C806169019BC1F30801C1F524
:1098A0000078B04528BFB04642461944484615F0F6
:1098B00069FBC8E72DE9F04F9A4685B00023894639
:1098C000CAF8003003A904461646FFF707FA074610
:1098D00008B9677C27B103983946FFF7F4F908E027
:1098E000237C039D9A0708D407212846FFF7EBF94C
:1098F0000727384605B0BDE8F08F6369F34228BFFB
:10990000DE4304F128030093A6B16369C3F30802A0
:10991000002A40F09380B5F80A8008F1FF3818EA71
:10992000532826D16BB9A16869B92046FFF7F5FB2A
:10993000014640B9237C43F04003237400212846AC
:10994000CBE7A169F1E7012906D10221617428461C
:10995000FFF7B9F90227CCE74B1C06D1012161744E
:109960002846FFF7B0F90127C3E7A368A16103B94F
:10997000A16094F91030002B0BDAE2690099687845
:1099800001230EF0F5F90028E8D1237C03F07F03D2
:109990002374A1692846FEF7C9FF0028D5D0B6F583
:1099A000007F08EB000B37D3698908EB562088420B
:1099B0004FEA5623687888BFA1EB08035A46494608
:1099C00001930EF0D5F9019B0028C7D1E169A1EB05
:1099D0000B0199420DD24FF4007209EB412104F1C1
:1099E0002800019315F0CEFA227C019B02F07F0241
:1099F00022744FEA4328DAF80030E2684344CAF898
:109A0000003063694344A6EB0806C14463619A428F
:109A10002CBFE260E36077E7E169636959450BD0E9
:109A2000E168994208D9687801235A4604F128016F
:109A30000EF08EF9002891D1C4F81CB06069009B2B
:109A4000C0F30800C0F50078B04528BFB046184400
:109A50004246494615F096FA237C63F07F0323744F
:109A6000C9E72DE9F34101A90546FFF737F9044697
:109A7000002844D12B7C019F13F040043FD01B06EB
:109A800014D5EA697878012305F128010EF070F900
:109A900040B101213846FFF716F90124204602B0F3
:109AA000BDE8F0812B7C03F07F032B740EF096F958
:109AB000296A80463846FEF786FF0446F8B96E6A82
:109AC000F37A43F02003F372AA6828683146FEF760
:109AD0006EFFE96806F11C00FEF720FF414606F123
:109AE0001600FEF71BFF0123B474F47438463B7173
:109AF000FFF774F82B7C23F0400304462B74019885
:109B00002146FFF7E0F8C9E737B50546FFF7A9FF9B
:109B1000044650B901A92846FFF7E0F8044620B9E9
:109B2000286001460198FFF7CEF8204603B030BD0B
:109B30007FB50546019100282FD0002203A901A876
:109B4000FFF7F6F8044678B9039E01992E6028467F
:109B5000FFF7B0FB044610BB95F92B30002B0BDB55
:109B6000AB79DB0603D4052400232B600EE03078AC
:109B7000E969FFF705FAA860F388AB802846FFF78C
:109B80005DFA04280446EED00028EDD10398214662
:109B9000FFF799F8204604B070BD0924FAE70428BD
:109BA000E1D0E1E737B501A90546FFF797F804468C
:109BB00020B9286001460198FFF785F8204603B0D8
:109BC00030BD73B50E4601A90546FFF787F8044678
:109BD00020B928464EB9FFF731FA044601982146CC
:109BE000FFF771F8204602B070BDFFF729FC10F0B6
:109BF000FB030446F2D17372AB691BB1E8693146CD
:109C0000FFF737F800212846FFF7FEFA042804463C
:109C100008BF0024E2E730B58FB00D460190002266
:109C200003A901A8FFF784F8044688B9019903A89D
:109C3000FFF740FB044658B99DF93730002B0EDB87
:109C400035B1099B68721BB10A982946FFF711F8D4
:109C500003982146FFF737F820460FB030BD0624A1
:109C6000F6E72DE9F04F85B088460190164603A926
:109C7000002201A8FFF75CF8054648B9039C346050
:109C8000D4E9043BABF10202934209D8C8F8003092
:109C900003982946FFF717F8284605B0BDE8F08F6E
:109CA00094F800A0BAF1010F17D1022706463946F1
:109CB0002046FFF76DF9431C38D0012834D000B995
:109CC000013663690137BB42F1D8C8F80060637997
:109CD000266143F001036371DAE7216A074606460D
:109CE00004F1300947B94B1C20460093FEF76BFE88
:109CF0008246D8B9009B19462378022B0AD1E31972
:109D00001B8E03B901360237BBF1010BC7F30807FD
:109D1000E8D1DAE709EB0700FEF7FEFD30F070430B
:109D200008BF01360437EFE74FF0020A5546AFE7A8
:109D30002DE9F0419AB00222019003A901A8FEF793
:109D4000F7FF044680B9039E0199049604A8FFF723
:109D5000B1FA044640B99DF93B30002B42DB9DF837
:109D60001640E20708D5072403982146FEF7ABFF0B
:109D700020461AB0BDE8F081DDF82C8030784146ED
:109D8000FFF7FEF8E306054612D4049F0A99384609
:109D9000FEF719FE04460028E6D1E52388F80030D6
:109DA00001233B71ADB93046FEF718FF0446DBE7EF
:109DB00011900FA80F96FFF741F904460028D3D160
:109DC0000FA8FFF73DFB04460028CCD00428CBD1D8
:109DD000DBE70246294604A8FFF768F90446002895
:109DE000C2D1E0E70624BFE7F0B593B002220190AC
:109DF00002A901A8FEF79CFF04460546002867D18A
:109E0000029B0199079307A8FFF754FA044600281C
:109E10006FD004285CD1029B0393294603A8FFF767
:109E20007CF9054600285AD001285AD0431C5C42D0
:109E30005C410DF0D3FF0646002C54D10298294610
:109E4000FEF7A3FE044600284DD1029C4FF02033BC
:109E5000C4F83130C4F83530A4F839302E2384F8F2
:109E60003030102384F83B30314604F1460004F1D1
:109E70003007FEF753FD2A4639462046FEF797FD88
:109E800004F150031A4651F8040B42F8040B9942AE
:109E9000F9D12E2384F851302046099A0127FEF784
:109EA00086FD277107A8FFF7F4FA0446D8B90E9883
:109EB00031461630FEF732FD2A4602980E99FEF71B
:109EC00076FD0E9B1022DA720771FEF787FE0446BC
:109ED00002982146FEF7F7FE204613B0F0BD072496
:109EE000A7E70224A5E70022294603A8FFF7DEF82A
:109EF000EEE70824ECE7F0B5A3B0CDE90010684622
:109F0000FEF71FFD022203A901A8FEF711FF044678
:109F1000002840F08680039D01990C950CA8FFF75E
:109F2000C9F9044600287CD19DF85B3013F0A00FDE
:109F30007ED1139E04AC334606F120071868596899
:109F4000224603C20833BB421446F7D10CAC0FCCF7
:109F500017AF0FC70FCC0FC794E8070087E80700BB
:109F6000009917A8FFF7A6F9044648B9199A0E9B5D
:109F70009A4203D11B9A109B9A4203D0082450E0C6
:109F800004284ED117A8FFF784FA0446002848D1C8
:109F90001E990DF11D0301F10D020DF12D0053F875
:109FA000044B42F8044B8342F9D1188810809B7807
:109FB00093709DF81B30DA0658BF43F02003012749
:109FC000CB722F71CB7ADB061CD50E9A199B9A4265
:109FD00018D02878FEF7D4FF01462846FEF7A6FCE5
:109FE000014638B32846FEF7EEFC0446C8B995F89A
:109FF00051302E2B06D1199A05F150012846FEF753
:10A00000D6FC2F710C9F12993846FEF7DCFC0446F3
:10A0100038B9E523337001233B712846FEF7DEFD96
:10A02000044603982146FEF74EFE204623B0F0BDBD
:10A030000624F6E70224F4E710B50446012000F0F8
:10A04000E3FC034B43F82400003818BF012010BD87
:10A0500054170020024B53F8200000F0F7BE00BF59
:10A060005417002008B5054B4FF47A7153F82000BF
:10A0700000F00AFE431E5842584108BD5417002004
:10A0800010B4054C002354F820005DF8044B1A4628
:10A09000194600F019BC00BF5417002010B54FF04E
:10A0A0008043592416208821C3F80041C3F80001D9
:10A0B000C3F80011D3F80021002AF5D00E480F4C48
:10A0C00003F0ACFD002211460B4803F04FFD204683
:10A0D00005F070FD0A4BB0FBF3F0236843F0C0536A
:10A0E0002360236823F0FF0303432360236843F0C6
:10A0F0008043236010BD00BF0200805E0000054069
:10A10000A0860100014BD868704700BF00000540E1
:10A1100000F108034FF0FF32C0E9022343600361FE
:10A1200000230360704700230361704743684B605E
:10A130009A688A605160996003680861013303601E
:10A14000704730B50C68631C0AD103695A684A60CD
:10A1500091608B605960036808610133036030BD12
:10A1600000F10802134652681568A542FAD9EDE7D6
:10A17000D0E9011203698A6051605968814208BFC1
:10A180005A60002202611A68013A1A601868704722
:10A1900008480068006880F308884FF0000080F3EA
:10A1A000148862B661B6BFF34F8FBFF36F8F00DFC5
:10A1B00000BF000008ED00E0DFF80C00016841F48A
:10A1C000700101607047000088ED00E082B000235C
:10A1D00001930D4B1B68013308D04FF0500383F3FC
:10A1E0001188BFF36F8FBFF34F8FFFDE4FF0500327
:10A1F00083F31188BFF36F8FBFF34F8F019B002B49
:10A20000FCD002B0704700BFE81100204FF080730F
:10A2100040F8043C074B40F80C3C21F001016FF082
:10A22000020340F8081C40F8202C40F8243C443835
:10A23000704700BFCDA1000000000000000000003A
:10A24000074B19680868B0E8F04F80F30988BFF33E
:10A250006F8F4FF0000080F311887047AFF30080DC
:10A26000C09800204FF0500383F31188BFF36F8F25
:10A27000BFF34F8F0A4A13680133012B13600ED1CD
:10A280004FF0E023D3F8043DDBB243B14FF050036D
:10A2900083F31188BFF36F8FBFF34F8FFFDE7047DB
:10A2A000E8110020084A136843B94FF0500383F3C4
:10A2B0001188BFF36F8FBFF34F8FFFDE013B136039
:10A2C0000BB983F311887047E811002000000000EB
:10A2D000EFF30980BFF36F8F154B1A681EF0100F54
:10A2E00008BF20ED108A20E9F04F10602DE9090029
:10A2F0004FF0500080F31188BFF34F8FBFF36F8F83
:10A3000001F030FB4FF0000080F3118809BC1968A0
:10A310000868B0E8F04F1EF0100F08BFB0EC108ACC
:10A3200080F30988BFF36F8F704700BFAFF30080E1
:10A33000C098002008B54FF0500383F31188BFF395
:10A340006F8FBFF34F8F01F097F928B14FF0E023E3
:10A350004FF08052C3F8042D002383F3118808BD09
:10A360004FF0E022002313619361054B4FF47A71A3
:10A370001B68B3FBF1F3013B536107231361704783
:10A38000E41100204FF0E02337B5D3F8001D2F4A29
:10A39000914208D14FF0500383F31188BFF36F8FC0
:10A3A000BFF34F8FFFDED3F8002D294B9A42F1D037
:10A3B000284B1A78D2B20192FF221A701B78264AD3
:10A3C000DBB28DF803309DF8033003F050031370B7
:10A3D000224A072313609DF80310136809062CD442
:10A3E000032BD7D14FF440731360019B194A4FF0F0
:10A3F000E024DBB21370D4F8203D43F47003C4F8BA
:10A40000203DD4F8203D43F07043C4F8203DFFF7D1
:10A41000A7FF134B00251D60FFF7CEFED4F8343F95
:10A4200043F04043C4F8343FFFF7B2FE01F09AFA1C
:10A43000FFF7CCFE284603B030BD013B13609DF80A
:10A4400003305B00DBB28DF80330C4E771C20F410B
:10A4500070C20F4100E400E0601700205C1700208C
:10A46000E8110020EFF305830F2B0ED90C4A9B5CFB
:10A470000C4A12789A4208D94FF0500383F311889E
:10A48000BFF36F8FBFF34F8FFFDE4FF0E023064A1D
:10A49000D3F80C3D126803F4E0639342ECD87047A4
:10A4A000F0E300E0601700205C17002010B5104BAF
:10A4B0001A461B688342FBD354681119884201BFB6
:10A4C0004168104609195160446801198B420CD14A
:10A4D000084909688B4203D05968214441601968D2
:10A4E0000160904218BF106010BD1946F8E700BF28
:10A4F00074170020701700202DE9F041044601F088
:10A50000A5F83C493C4D0B680BBB3C4A56071FBFA6
:10A51000D01D20F0070002F50042131A0CBF4FF4C3
:10A52000004302461344364E083B23F00703002045
:10A5300070603260C3E90000981AC2E900300B6015
:10A54000304B1860304B18604FF000432B602F6881
:10A55000274207D001F028F90BF038FD00263046DD
:10A56000BDE8F081002CF5D004F1080360071CBFA2
:10A5700023F007030833002BECD0DFF88C80D8F8E9
:10A5800000509D42E6D31E4A14686068984201D28A
:10A590002668B6B90968A142DCD021681668116046
:10A5A000C21A102A06F1080612D9E01841070BD08A
:10A5B0004FF0500383F31188BFF36F8FBFF34F8FBA
:10A5C000FFDE22463446E0E742606360FFF76EFF3D
:10A5D0000C4962680868AD1A00231743854223605E
:10A5E000676038BF0D60C8F8005001F0DDF87307F0
:10A5F000B5D0DDE770170020641700207C1700201D
:10A6000074170020681700206C17002038B5044626
:10A6100038B3144A50F8043C12681342A0F10805FC
:10A6200008D14FF0500383F31188BFF36F8FBFF34E
:10A630004F8FFFDE50F8081C0029F2D123EA0203F5
:10A6400040F8043C01F002F8074A54F8043C116851
:10A6500028460B441360FFF729FFBDE8384001F09E
:10A66000A3B838BD641700206C170020014B186890
:10A67000704700BF6C17002010B50446FFF7F2FDCD
:10A68000A46BFFF70FFEB4FA84F0400910BD70B55B
:10A690001646026C856B044642B906689EB940684E
:10A6A00001F002FB66600135A56370BD6EB980687C
:10A6B00014F068FCA368226C13446268A3609342A0
:10A6C00024BF2368A3600020EDE7C06814F05AFCA3
:10A6D000226CE36851429B1A2268E36093423EBFBA
:10A6E00063685B18E360022EEDD10DB1013DEAE72E
:10A6F0002846D8E773B5846C01900A4644B94FF0F8
:10A70000500383F31188BFF36F8FBFF34F8FFFDECA
:10A71000A16BE36B9942F2D2A16B8B421AD994F8E8
:10A72000455001A92046FFF7B2FF6DB26B1C0646EB
:10A730000BD1636A33B104F1240001F0ABF90028B6
:10A7400018BF0126304602B070BD01356DB284F8E5
:10A750004550F7E70026F5E7034610B41A6C0846A3
:10A760006AB1DC68596814448C4228BF1968DC60FF
:10A7700028BFD960D9685DF8044B14F003BC5DF8BC
:10A78000044B704770B50446FFF76CFD94F84550D4
:10A7900004F124066DB2002D0DDDA36C4BB1002138
:10A7A0002046FFF7A7FF08B101F012FA013D6DB294
:10A7B000F1E7636AB3B9FF2384F84530FFF772FD10
:10A7C000FFF750FD94F8445004F110066DB2002DCF
:10A7D00001DD236953B9FF2384F84430BDE870409C
:10A7E000FFF760BD304601F055F9DCE7304601F077
:10A7F00051F908B101F0ECF9013D6DB2E7E738B568
:10A800000D46044640B94FF0500383F31188BFF35F
:10A810006F8FBFF34F8FFFDEFFF724FDD4E90F31B9
:10A820002268A2604B43D0185B1A1A446060FF2371
:10A830000020A063E26084F8443084F84530A5B974
:10A84000236973B104F1100001F024F948B14FF00D
:10A85000E0234FF08052C3F8042DBFF34F8FBFF3B6
:10A860006F8FFFF71FFD012038BD04F11000FFF7C7
:10A870004FFC04F12400FFF74BFCF2E7F8B50D465E
:10A880001746064640B94FF0500383F31188BFF3D3
:10A890006F8FBFF34F8FFFDE48435430FFF72CFE1E
:10A8A000044668B175B100F154032360C4E90F6533
:10A8B00001212046FFF7A3FF002384F85070A36412
:10A8C0002046F8BD0346F0E72DE9FF410F4601920F
:10A8D0001D46044640B94FF0500383F31188BFF37F
:10A8E0006F8FBFF34F8FFFDE11B9036C002BF2D1D6
:10A8F000022D02D1E36B012BEDD101F075F9064673
:10A90000B0B100264FF00008FFF7ACFCA26BE36B80
:10A910009A4211D22A4639462046FFF7B8FEA36C68
:10A9200093B9636AA3B104F1240001F0B3F80FE016
:10A93000019B002BE6D0CEE7022DEBD0019BC3B9E3
:10A94000FFF7B0FC002011E029462046FFF7D2FEB9
:10A9500048B14FF0E0234FF08052C3F8042DBFF30D
:10A960004F8FBFF36F8FFFF79DFC012004B0BDE850
:10A97000F08116B902A801F0EBF8FFF793FC00F0A4
:10A9800065FEFFF76FFC94F84430FF2B08BF84F896
:10A99000448094F84530FF2B08BF84F84580FFF7CA
:10A9A00081FC01A902A801F0DFF838BBFFF75AFCCF
:10A9B000A26BE36B9A420ED1FFF774FC019904F18C
:10A9C000100001F02FF82046FFF7DCFE00F0ECFE4F
:10A9D00048B1012698E7FFF765FC2046FFF7D2FE55
:10A9E00000F0E2FEF5E74FF0E0234FF08052C3F8AD
:10A9F000042DBFF34F8FBFF36F8FEAE72046FFF7B9
:10AA0000C1FE00F0D1FE9DE710B5024600210120F5
:10AA1000FFF734FF044638B10023C0E90033C360B8
:10AA20001A461946FFF750FF204610BD2DE9F8439E
:10AA3000894617461E46044640B94FF0500383F33B
:10AA40001188BFF36F8FBFF34F8FFFDE11B9036C17
:10AA5000002BF2D1022E02D1E36B012BEDD1FFF7D7
:10AA600001FDEFF311884FF0500383F31188BFF31A
:10AA70006F8FBFF34F8FA26BE36B9A4201D3022E0D
:10AA800027D194F8455032466DB249462046FFF72B
:10AA9000FEFD6B1C18D1A36C73B131462046FFF745
:10AAA00029FE20B9012088F31188BDE8F883002F22
:10AAB000F8D001233B60F5E7636A002BF2D004F184
:10AAC000240000F0E7FFECE701356DB284F8455053
:10AAD000E8E70020E7E770B50D46044640B94FF0BF
:10AAE000500383F31188BFF36F8FBFF34F8FFFDEE7
:10AAF000036C002BF3D1036813B94368002BEED12C
:10AB0000FFF7B0FCEFF311864FF0500383F3118889
:10AB1000BFF36F8FBFF34F8FA26BE36B934223D9C9
:10AB200094F845100132FF294BB2A26317D1A36CF0
:10AB30006BB100212046FFF7DDFD18B9012086F337
:10AB4000118870BD002DF9D001232B60F6E7636AF0
:10AB5000002BF3D004F1240000F09CFFEDE701335B
:10AB60005BB284F84530E9E70020E8E72DE9FF41D2
:10AB70000E460192044640B94FF0500383F311880A
:10AB8000BFF36F8FBFF34F8FFFDE11B9036C002B44
:10AB9000F2D101F029F8054618B300254FF000085E
:10ABA000FFF760FBA76B07B331462046013FFFF775
:10ABB000D3FDA763236973B104F1100000F06AFFAD
:10ABC00048B14FF0E0234FF08052C3F8042DBFF39B
:10ABD0004F8FBFF36F8FFFF765FB012004B0BDE817
:10ABE000F081019B002BD9D0C6E7019B1BB9FFF771
:10ABF00059FB0020F2E715B902A800F0A9FFFFF702
:10AC000051FB00F023FDFFF72DFB94F84430FF2BA0
:10AC100008BF84F8448094F84530FF2B08BF84F8BF
:10AC20004580FFF73FFB01A902A800F09DFF00BB94
:10AC30002046FFF721FDB0B1019904F1240000F096
:10AC4000F1FE2046FFF79EFD00F0AEFD48B94FF043
:10AC5000E0234FF08052C3F8042DBFF34F8FBFF3B2
:10AC60006F8F01259CE72046FFF78CFD00F09CFDCF
:10AC7000F7E72046FFF786FD00F096FD2046FFF738
:10AC8000FBFC0028EDD0B4E7F0B585B00446019197
:10AC900040B94FF0500383F31188BFF36F8FBFF3B8
:10ACA0004F8FFFDE056C002DF3D100F09DFF0646AF
:10ACB00010B32E460027FFF7D5FAA36B0BB3013B69
:10ACC000A363236813B901F087F86060236973B147
:10ACD00004F1100000F0DEFE48B14FF0E0234FF029
:10ACE0008052C3F8042DBFF34F8FBFF36F8FFFF770
:10ACF000D9FA012005B0F0BD019B002BC9D1354622
:10AD0000D8E7019B2BB9002DC3D1FFF7CBFA002068
:10AD1000F0E716B902A800F01BFFFFF7C3FA00F036
:10AD200095FCFFF79FFA94F84430FF2B08BF84F896
:10AD3000447094F84530FF2B08BF84F84570FFF746
:10AD4000B1FA01A902A800F00FFF50BB2046FFF79F
:10AD500093FC00B323683BB9FFF784FA606800F006
:10AD600053FF0546FFF79EFA019904F1240000F015
:10AD700059FE2046FFF706FD00F016FD48B94FF0DA
:10AD8000E0234FF08052C3F8042DBFF34F8FBFF381
:10AD90006F8F01268FE72046FFF7F4FC00F004FDDB
:10ADA000F7E72046FFF7EEFC00F0FEFC2046FFF739
:10ADB00063FC0028EDD0002DA9D0FFF753FA616A9B
:10ADC00019B1236B1968C1F10501606800F0B4FF87
:10ADD0009BE710B5044640B94FF0500383F3118848
:10ADE000BFF36F8FBFF34F8FFFDEFFF73BFAA46B0C
:10ADF000FFF758FA204610BD30B5074A002352F835
:10AE0000335002EBC3041DB942F83310606030BD0B
:10AE10000133082BF3D1FAE77C97002010B5094ADB
:10AE2000002352F8331081424FEAC30406D1064A88
:10AE3000002142F833102244516010BD0133082B29
:10AE4000EFD1FAE7809700207C97002008B540B941
:10AE50004FF0500383F31188BFF36F8FBFF34F8F11
:10AE6000FFDEFFF7DBFFBDE80840FFF7CFBB70B5A3
:10AE700004460D461646FFF7F5F994F84430FF2BCB
:10AE800004BF002384F8443094F84530FF2B04BFFE
:10AE9000002384F84530FFF705FAA36B2BB932463F
:10AEA000294604F1240000F0D7FD2046BDE870409B
:10AEB000FFF768BC8268436800681344181A82422E
:10AEC00098BF801A70472DE9F0410446884616461F
:10AED00042B94FF0500383F31188BFF36F8FBFF374
:10AEE0004F8FFFDE456883685F1B974228BF174678
:10AEF000EA199342EDD380693A46284414F042F8A7
:10AF0000BE4208D9A368F21B9A42E2D8A06908EBB6
:10AF1000070114F037F8A3683544AB4298BFED1A27
:10AF200065603046BDE8F081934228BF13462DE9A5
:10AF3000F041064688461D463BB3046883681F1BE4
:10AF4000AF4228BF2F46BA4208D24FF0500383F3D6
:10AF50001188BFF36F8FBFF34F8FFFDEE21993426B
:10AF6000F3D381693A462144404614F00BF8BD42C0
:10AF700005D9B169EA1B08EB070014F003F8B368C0
:10AF80002C44A34298BFE41A34602846BDE8F081FF
:10AF90002DE9F3411646089A04460F461D46C2B1F4
:10AFA00004220DEB0201D0F80080FFF7BDFF019BEA
:10AFB000B342A5F1040503D90023C4F8008001932E
:10AFC000019A2B463946204602B0BDE8F041FFF712
:10AFD000ABBF0196F4E74FF0500383F31188BFF342
:10AFE0006F8FBFF34F8FFFDE04282DE9F041054638
:10AFF0000E46174608D84FF0500383F31188BFF36D
:10B000006F8FBFF34F8FFFDE8842F4D32530FFF7F9
:10B0100073FA0446D0B100F1240801352A465521BF
:10B02000404613F019FC804501D0FFF7D4FF2422DD
:10B030000021204613F010FC012E38BF0126C4F871
:10B040001880A560E6600FB1012323772046BDE894
:10B05000F08108B508B9FFF7BEFF82680368416850
:10B06000D0180138401A824298BF801A08BD2DE9D5
:10B07000F043044685B015461F460E4641B94FF0D1
:10B08000500383F31188BFF36F8FBFF34F8FFFDE41
:10B090000028F4D0027F12F0010814BF05F1040962
:10B0A000A946FFF7D6FF039568B1B8F1000F0FD19D
:10B0B000854294BF03950390039A31462046FFF7DB
:10B0C00002FF054660B90025284605B0BDE8F083BB
:10B0D0008145F8D8042203A92046FFF7F4FEEBE7E8
:10B0E0002046FFF7E7FEE3689842EDD3EFF31186C1
:10B0F0004FF0500383F31188BFF36F8FBFF34F8F6F
:10B10000236943B10023206900971A46194600F0CD
:10B1100013FF0023236186F31188D5E72DE9F74358
:10B120000446904699460F4641B94FF0500383F3C9
:10B130001188BFF36F8FBFF34F8FFFDE0028F4D06D
:10B14000067F06F00106B600ABB3FFF78BF820468A
:10B15000FFF7B0FE8642054619D2FFF7A3F82B464B
:10B160000096424639462046FFF712FF054638B39F
:10B1700000F06CFA63693BB100231A461946606916
:10B1800000F07CFE0023636100F00EFB19E000205C
:10B1900000F048FF2569002DC7D100F01FFD206198
:10B1A000FFF780F84B462A464FF0FF31284600F063
:10B1B0001FFE25612046FFF77DFE86420546CED361
:10B1C0000025284603B0BDE8F0830268F0B50346C9
:10B1D0001AB342685068586003F10802904204BFF5
:10B1E000D86858605868C768586840685860824294
:10B1F00004BF506858605868C0684D1E00F13304A1
:10B2000000F13D0C14F801EF15F8016F764502D1FD
:10B2100026B16445F6D18742E6D10020F0BD00009A
:10B22000F8B51A4B1A4D1C680646286804300F46BC
:10B23000FEF79EFF40B92A681649D06A0B680122C2
:10B24000824023EA02030B60731C07D137B12968DF
:10B250001148BDE8F8400431FEF768BF2B68A41917
:10B260005C6007D30D4B18682968BDE8F8400431CD
:10B27000FEF767BF0A4B186829680431FEF761FFC3
:10B28000084B1A68A24288BF1C60F8BDE4970020F2
:10B29000C0980020E0970020EC9700202C98002018
:10B2A00030980020C8970020064A13681968064B9A
:10B2B00019B94FF0FF321A6070471268D268D2682D
:10B2C0005268F8E730980020C897002080B5154CE8
:10B2D000154F164E236873B9154B1B68012BF8D90F
:10B2E0004FF0E0234FF08052C3F8042DBFF34F8F8F
:10B2F000BFF36F8FEDE7FEF7B5FFFB68DD68281D34
:10B30000FEF736FF3368013B33602368013B23605F
:10B31000FEF7C8FF286BFFF779F92846FFF776F9A3
:10B32000D8E700BF0098002004980020E89700208C
:10B330005C9800202DE9F84F950006462846DDF878
:10B340002C808A461F46FFF7D7F8814618B94FF080
:10B35000FF30BDE8F88F6020FFF7CEF804460028E4
:10B3600000F0A780C0F830902A464846A52113F087
:10B3700073FA236B043D2B4423F00709C4F8409073
:10B380000AF1FF3304F133020AF1090A13F8011F2D
:10B3900002F8011F09B15345F8D10A9D042D28BFB9
:10B3A00004254FF0000B04F1040AC4E9135BE562C5
:10B3B000504684F83DB0FEF7B6FEC5F1050504F130
:10B3C0001800FEF7B0FEC4F858B02461A5616462AD
:10B3D000C4F854B084F85CB03A4631464846FEF7AB
:10B3E00015FF2060B8F1000F01D0C8F80040FEF74B
:10B3F00039FF324B324F1A68324E01321A603D68C3
:10B40000002D4BD13C601B68012B1FD1B04640463C
:10B410000135FEF77DFE052D08F11408F7D1DFF8A0
:10B42000CC80294D4046FEF773FE2846FEF770FE9D
:10B430002648FEF76DFE2648FEF76AFE2548FEF711
:10B4400067FE254BC3F80080244B1D60244A254924
:10B450001368086801331360E26A63640123934050
:10B46000034314200B6000FB02605146FEF75EFEB2
:10B47000FEF718FF1C4B1B6873B13B68DA6AE36A7E
:10B480009A4209D24FF0E0234FF08052C3F8042DC6
:10B49000BFF34F8FBFF36F8F01205AE7124B1A682B
:10B4A000E36A002AD2D13A68D26A9A4298BF3C60D5
:10B4B000CCE74846FFF7AAF849E700BFE897002025
:10B4C000C09800205C980020349800201898002034
:10B4D00004980020EC970020309800202C98002041
:10B4E000CC970020E0970020DC97002048980020AF
:10B4F00070B504462B4DFEF7B5FE04B92C68261D29
:10B500003046FEF735FE60B9E06A274A142343430C
:10B51000D35833B9254901220B68824023EA02033C
:10B520000B60A36A1BB104F11800FEF721FE204A4C
:10B530001368013313602B68A3421BD11D483146A9
:10B54000FEF7F4FD1C4A136801331360FEF7AAFEF0
:10B550001A4B1B682BB32B68A34222D1184B1B68D4
:10B56000ABB14FF0500383F31188BFF36F8FBFF37C
:10B570004F8FFFDE134A206B1368013B1360FFF708
:10B5800045F82046FFF742F8FFF78EFEDEE74FF062
:10B59000E0234FF08052C3F8042DBFF34F8FBFF369
:10B5A0006F8F70BDC09800205C980020E09700204D
:10B5B000CC9700200498002000980020DC97002001
:10B5C000C0970020E897002013B51A4B0193002480
:10B5D00019491A48009423463222FFF7ABFE01288E
:10B5E0001AD100F07FFD012816D14FF0500383F3EC
:10B5F0001188BFF36F8FBFF34F8F114B4FF0FF32A6
:10B600001A60104B1860104B1C60FEF747FD02B02B
:10B61000BDE81040FEF7B6BE013008D14FF0500330
:10B6200083F31188BFF36F8FBFF34F8FFFDE02B03C
:10B6300010BD00BFC4970020F8300200CDB200005A
:10B64000C8970020DC970020E4970020024A136886
:10B6500001331360704700BFC0970020014B18688A
:10B66000704700BFE497002008B5FEF7FBFE014BD2
:10B67000186808BDE4970020404B1B682DE9F74F80
:10B68000002B74D13E4B1C6801341C60BCB93D4B8F
:10B690001A68126842B14FF0500383F31188BFF368
:10B6A0006F8FBFF34F8FFFDE374A1968106818603D
:10B6B0001160364A136801331360FFF7F5FD344D0E
:10B6C000344E2B68344FA3424FF0000B11D93A6827
:10B6D000D26A14214A43B258022A28BF4FF0010B04
:10B6E0002E4A1268002A0CBF5846012003B0BDE85C
:10B6F000F08FDFF890A0DFF8AC90DAF80020126845
:10B700001AB94FF0FF322A60E1E7DAF80020D26878
:10B71000D2F80C80D8F804108C4201D22960D6E708
:10B7200008F1040318460193FEF722FDD8F828100B
:10B7300019B108F11800FEF71BFDD8F82C00D9F854
:10B740000030012202FA00F119434FF0140CC9F83D
:10B7500000100CFB00600199FEF7E8FC3868D8F88F
:10B760002C10C26A914228BF4FF0010BC5E70C4A6A
:10B770001368013313604FF0000BB1E7C09700204E
:10B78000E4970020309800202C980020D0970020CB
:10B79000C89700205C980020C0980020D497002013
:10B7A000D8970020E09700202DE9F843314C23681A
:10B7B00043B94FF0500383F31188BFF36F8FBFF38A
:10B7C0004F8FFFDEFEF74EFD2368013B23602468A8
:10B7D0002CB10024FEF766FD2046BDE8F883264B19
:10B7E0001B68002BF5D0254D254EDFF8A4801FE007
:10B7F000EB68DC6804F1040904F11800FEF7B8FCFA
:10B800004846FEF7B5FCE26A3168012707FA02F301
:10B8100014200B4300FB028049463360FEF786FC90
:10B82000184BE26A1B68DB6A9A4201D3164B1F6011
:10B830002B68002BDCD10CB1FFF736FD134D2C68C3
:10B8400044B1114E0127FFF717FF00B13760013CEB
:10B85000F9D12C600C4B1B68002BBAD04FF0E023C1
:10B860004FF08052C3F8042DBFF34F8FBFF36F8F9B
:10B870000124AFE7C0970020E89700201898002027
:10B88000E0970020C0980020D4970020D89700208F
:10B890005C98002008B550B94FF0E0234FF080527B
:10B8A000C3F8042DBFF34F8FBFF36F8F08BD0A4B52
:10B8B000196841B14FF0500383F31188BFF36F8FC4
:10B8C000BFF34F8FFFDEFFF7C1FEFFF7A9FCFFF7C5
:10B8D0006BFF0028E0D0E9E7C09700202DE9F04198
:10B8E000064612F04DFF092808D94FF0500383F3A4
:10B8F0001188BFF36F8FBFF34F8FFFDEFFF7A6FEF8
:10B90000DFF85C8005251427013D314607FB0580E3
:10B91000FFF75BFC0446B0B9002DF5D10C4B18685D
:10B92000FFF753FC044670B90A4B1868FFF74DFC4B
:10B93000044640B90848FFF748FC044618B90748D0
:10B94000FFF743FC0446FFF72FFF2046BDE8F081D8
:10B95000309800202C980020EC97002004980020BC
:10B960005C98002038B5294B1A68294B12B1012286
:10B970001A6038BD1A60FEF7C5FB264A264C1568CA
:10B98000A84204D921684B6D5B1B03444B652368B7
:10B9900010601B6B1A68B2F1A53F0BD15A68B2F167
:10B9A000A53F07D19A68B2F1A53F03D1DB68B3F197
:10B9B000A53F04D02068216834310AF037FB174BCB
:10B9C0001A68B2FA82F2D2B2C2F11F0214231449E9
:10B9D0005343C818CD5845B94FF0500383F311882D
:10B9E000BFF36F8FBFF34F8FFFDE456808336D687D
:10B9F00045600B449D4204BF6B684360142303FB06
:10BA000002114B68DB682360B3E700BFC0970020DA
:10BA1000D4970020BC970020C0980020E097002019
:10BA20005C98002010B50C4640B94FF0500383F3EA
:10BA30001188BFF36F8FBFF34F8FFFDE054B19687F
:10BA40001831FEF77EFB20460121BDE81040FFF7CC
:10BA5000E7BB00BFC098002038B50D46144640B97A
:10BA60004FF0500383F31188BFF36F8FBFF34F8FF5
:10BA7000FFDE074B19681831FEF758FB002C2146F2
:10BA80000CBF28464FF0FF30BDE83840FFF7C8BB79
:10BA9000C098002038B5C368DC6844B94FF0500343
:10BAA00083F31188BFF36F8FBFF34F8FFFDE04F175
:10BAB00018052846FEF75CFB114B1B68E3B9251DF2
:10BAC0002846FEF755FB0F49E26A086801239340B8
:10BAD00003430B600C4B1420294600FB0230FEF799
:10BAE00025FB0A4BE26A1B68DB6A9A4283BF084B5C
:10BAF00001201860002038BD06482946EFE700BF46
:10BB0000C0970020E09700205C980020C09800209B
:10BB1000D49700201898002010B5044640B94FF083
:10BB2000500383F31188BFF36F8FBFF34F8FFFDE96
:10BB3000FEF798FB044B1B682360044B1B68636093
:10BB4000BDE81040FEF7AEBBD0970020E497002080
:10BB5000034B1B680360034B1B684360704700BFC7
:10BB6000D0970020E497002070B50C46054640B9F8
:10BB70004FF0500383F31188BFF36F8FBFF34F8FE4
:10BB8000FFDE0029F4D0FEF76DFB0F4B1968236828
:10BB90005A1C10D00D482E6800686A68864201D091
:10BBA0008A420FD9881A83420AD95B1A1344236048
:10BBB0002846FFF7CDFF0024FEF774FB204670BD3A
:10BBC000002323600124F7E7E4970020D0970020AA
:10BBD000014B01221A607047D4970020014B18686E
:10BBE000704700BFC0980020054B1B6833B1054B60
:10BBF0001868B0FA80F04009400070470120704793
:10BC0000DC970020C09700202DE9F0410446002871
:10BC10002ED0224DC36A2A68D26A934236D28269F4
:10BC20001F4F002AA1BF2A68D26AC2F105028261B1
:10BC30001426426906FB03739A4215D100F10408E9
:10BC40004046FEF795FA174AA0B12B681168D86AEA
:10BC5000E062012383400B4313601423414603FB3E
:10BC60000070FEF763FA02E02B68DB6AC362012012
:10BC7000BDE8F081E06A4643BB59002BE5D113686B
:10BC80000121814023EA01031360DEE72B68C06CC9
:10BC9000DB6A98422CBF00200120E9E7C098002011
:10BCA0005C980020E0970020F8B5044608B9002011
:10BCB000F8BD1E4B1B68834208D04FF0500383F33E
:10BCC0001188BFF36F8FBFF34F8FFFDE1B6D002B0B
:10BCD000F3D0C16AC26C013B91420365E7D0002BEF
:10BCE000E5D1061D3046FEF743FA114F114A50B90F
:10BCF000E16A14234B43FB582BB9136801258D408F
:10BD000023EA05031360E36CE362C3F10501A1615B
:10BD10001168012404FA03F514200D4300FB03709D
:10BD200031461560FEF702FA2046C1E7C0980020B0
:10BD30005C980020E0970020F8B50446002844D025
:10BD4000026D42B94FF0500383F31188BFF36F8F38
:10BD5000BFF34F8FFFDEC36C994238BF1946C36AE9
:10BD60008B4232D0012A30D1184A12688242E9D07F
:10BD70008269174EC162002A4FF014054269A8BFBC
:10BD8000C1F1050105FB0363A8BF81619A421CD183
:10BD9000071D3846FEF7ECF9E26A0E4C40B95543F0
:10BDA00073592BB923680121914023EA01032360D1
:10BDB0002168012393400B4314202360394600FB84
:10BDC0000260BDE8F840FEF7B1B9F8BDC0980020A8
:10BDD0005C980020E0970020044B1A681AB119689B
:10BDE0000A6D01320A651868704700BFC0980020CC
:10BDF0002DE9F041204C1E4680460F461546FEF7C1
:10BE000031FA236893F85C30022B16D02268936DC8
:10BE100023EA080393652368012183F85C1066B167
:10BE20003046FFF7FDF94FF0E0234FF08052C3F8A2
:10BE3000042DBFF34F8FBFF36F8FFEF733FAFEF77A
:10BE400011FA15B123689B6D2B60236893F85C3061
:10BE5000022B01BF2268936DBB43936523684FF0AB
:10BE600000020CBF0125002583F85C20FEF71AFABA
:10BE70002846BDE8F08100BFC0980020F8B50F4605
:10BE800016461D46044640B94FF0500383F311880F
:10BE9000BFF36F8FBFF34F8FFFDEFEF7E3F90DB1F6
:10BEA000A36D2B6094F85C500223721EEDB284F8EF
:10BEB0005C30032A06D8DFE802F002303533A36D88
:10BEC0003B43A365012D23D1261D3046FEF750F9D3
:10BED000164AE36A11689D400D431560144A142008
:10BEE00000FB03203146FEF721F9A36A002BCBD1DA
:10BEF000104BE26A1B68DB6A9A4209D94FF0E023D3
:10BF00004FF08052C3F8042DBFF34F8FBFF36F8FF4
:10BF10000124FEF7C7F92046F8BDA36D0133D0E731
:10BF2000022D01D0A765CDE70024F2E7E0970020BD
:10BF30005C980020C09800202DE9F843089F8946AE
:10BF400016461D46044640B94FF0500383F311884E
:10BF5000BFF36F8FBFF34F8FFFDEFEF783FAEFF370
:10BF600011884FF0500383F31188BFF36F8FBFF335
:10BF70004F8F0DB1A36D2B6094F85C500223721E9D
:10BF8000EDB284F85C30032A07D8DFE802F0022D16
:10BF90003230A36D43EA0903A365012D1FD1A36AC3
:10BFA000002BD1D1194B1B6833BB261D3046FEF741
:10BFB000DFF8174AE36A11689D400D431560154A82
:10BFC0001420314600FB0320FEF7B0F8124BE26A62
:10BFD0001B68DB6A9A4202D901238FB13B600120C2
:10BFE00088F31188BDE8F883A36D0133D4E7022DEF
:10BFF00009D0C4F85890D0E7084804F11801E3E7E5
:10C00000074A1360EBE70020EAE700BFC097002073
:10C01000E09700205C980020C0980020189800202D
:10C02000D497002010B5044608B9084B1C68FEF7E9
:10C0300019F994F85C300020022B0ABF84F85C00E8
:10C0400004460124FEF72EF9204610BDC0980020BA
:10C05000914208B5416000610AD8D21A83699A42B8
:10C060000DD2084B011D1868FEF76BF8002008BDC3
:10C070009A4201D2994202D2034B011DF3E70120FB
:10C08000F5E700BFD0980020D4980020F8B50F4CF9
:10C09000FEF7E8F82568ADB90D4F0E4E3846FEF7AD
:10C0A00037F83046FEF734F80B4B1F600B4B2A462F
:10C0B0000C210A201E60FEF7E1FB206010B1084948
:10C0C000FEF79AFEBDE8F840FEF7ECB8CC980020E9
:10C0D000EC980020D8980020D4980020D098002018
:10C0E000FD30020007B5FFF7D1FF0D4B1B6843B9C8
:10C0F0004FF0500383F31188BFF36F8FBFF34F8F5F
:10C10000FFDE084B019302230093074907480023F1
:10C110006422FFF70FF90028EAD003B05DF804FBB2
:10C12000CC980020C89800200231020071C20000A3
:10C130002DE9F04180462C200D4617461E46FEF79D
:10C14000DBF90446A8B145B94FF0500383F31188D9
:10C15000BFF36F8FBFF34F8FFFDEFFF797FF069B95
:10C16000C4F80080C4E9065726626362201DFDF70B
:10C17000DAFF2046BDE8F0817FB5164604461A4630
:10C1800040B94FF0500383F31188BFF36F8FBFF3B3
:10C190004F8FFFDE0D4D286880B10529CDE90116CE
:10C1A00003940DDCFFF720FD0023022808BF089A46
:10C1B000286818BF1A4601A9FEF786FB04B070BDB7
:10C1C000002301A9FEF732FCF8E700BFCC9800205D
:10C1D0002DE9F347DFF894800646FFF73FFAD8F8D9
:10C1E00000308342054609D91E4F3B681A686AB978
:10C1F0001D4A116839601360012300E000232846BE
:10C200003360C8F8005002B0BDE8F087DB68DC6836
:10C21000D3F8009004F1040A5046FDF7A9FF636AC1
:10C2200020469847E369012BDFD1A3694B44994528
:10C2300006D23868636024615146FDF782FFD4E777
:10C24000002300934A4619462046FFF795FF002831
:10C25000CBD14FF0500383F31188BFF36F8FBFF33F
:10C260004F8FFFDED4980020D0980020C498002083
:10C270002DE9F043594E5A4F87B033681D68002DA1
:10C2800033D0DB68D3F80080FFF7E0F903A8FFF7AD
:10C290009FFF039C8146002C75D1002D58D040454E
:10C2A0005CD3FFF781FA3368DB68DD68281DFDF792
:10C2B0005FFFEB69012B1AD1A96943464A46414405
:10C2C0002846FFF7C5FE90B100942346424621461A
:10C2D0002846FFF751FF50B94FF0500383F3118800
:10C2E000BFF36F8FBFF34F8FFFDEA846CCE76B6ABB
:10C2F000284698473868002203A9FEF737FC002833
:10C30000BBD0039B002BF5DB059C636913B1201D9B
:10C31000FDF72EFF02A8FFF75BFF039B0246092BE8
:10C32000E8D801A151F823F08DC300008DC30000AF
:10C330008DC30000F5C20000C1C30000D5C30000DA
:10C340008DC300008DC30000F5C20000C1C3000012
:10C35000244B1B681C68B4FA84F4640938682246CC
:10C36000A8EB0901FEF783FDFFF71EFA0028C1D1F3
:10C370004FF0E0234FF08052C3F8042DBFF34F8FEE
:10C38000BFF36F8FB6E7FFF70FFAB3E7A169049B1E
:10C3900020461944FFF75CFE0028ABD0636A2046B4
:10C3A0009847E369012BA5D1A269049900230A44A7
:10C3B000009319462046FFF7DFFE00289AD18BE74D
:10C3C0000499A161002987D0034601442046FFF764
:10C3D0003FFE8FE72046FEF719F98BE7D49800203F
:10C3E000CC980020D09800200369C26893429CBF7B
:10C3F00081685B18013B981A70472DE9F041D0E93C
:10C4000002840546A8EB04064068964220440F4685
:10C41000144406D912F0B6FDBFF35F8FEC60BDE89F
:10C42000F0813246A4EB080412F0ACFD68682246A5
:10C43000B919EFE72DE9F843C5680646894617465E
:10C440004FF000083369B46870689D4228BF1B191B
:10C45000641BBC4203F1FF3328BF3C465B1B9C427C
:10C4600028BF1C4649462246284412F08BFDB3687B
:10C470002544A044A1443F1BAB4208BF0025BFF3A5
:10C480005F8FF560002FDDD14046BDE8F8830000E6
:10C4900008B5144BA8220021184612F0DDF903223A
:10C4A000026111494261114A8161C2614FF48062A7
:10C4B0000262002282624262C26201660C494166E7
:10C4C0001021816603460267C2664267BFF35F8F31
:10C4D000084911F8010D98540132102AF9D1BFF31F
:10C4E0005F8F08BD000000200A310200B800002064
:10C4F000A8000020F05F0200F8B5144B182700FBDD
:10C5000007751D4407FB00330E46DB6A012B1446FA
:10C510000AD0022B14D023B92846FFF765FF8442C6
:10C5200008D900242046F8BD2846FFF75DFF844265
:10C5300028BF0446224631462846FFF75EFFF1E752
:10C540002846BDE8F840FFF775BF00BF0000002097
:10C55000F8B50B4B1B78532B04460D46164601D0FD
:10C56000FFF796FFEFF311874FF0200181F3118859
:10C57000324629462046FFF7BFFF87F31188F8BDF2
:10C580000000002038B5054608460C4612F0F8F8C1
:10C59000214602462846BDE83840FFF7D9BFFFF7DD
:10C5A00077BF826810B504464068531C834205D8A3
:10C5B00020688154A360E3680133E360D4E9013269
:10C5C0009A420BD121682069FFF7C2FFA368984205
:10C5D00015BF4FF0FF330023E360A36010BD0000E0
:10C5E0002DE9F84F9946DDE90A4316460546884687
:10C5F0000A464FF0010AB24212D2CA4538BFCA46B3
:10C6000013F0010B01D184B90024EB68002B3DDB52
:10C610000127B9F1010F1FD909F1FF397743F8E775
:10C620000AF1010AB2FBF6F2E5E79B0712D5B9F170
:10C63000000F0CBF30272027A245E6D239462846F6
:10C64000FFF7AFFFEB68002B04F1FF34DDDB002CBC
:10C65000F2D1D9E72027EFE7B8FBF7F39E42DDD907
:10C66000DFF84890B8FBF7F3284619F8031007FBEA
:10C670001388FFF796FFEB68002B03DBB7FBF6F39D
:10C68000B74205D2BBF1000F00D064B9BDE8F88F06
:10C690001F46E7E720212846FFF783FFEB68002BC2
:10C6A00004F1FF34F2DB5445F4D8EFE7F15F020008
:10C6B0002DE9F04F00239BB00D464021CDE9061334
:10C6C000CDE908300DF1280A03901646CDF814A0E4
:10C6D00015F8011B39B9089D002D00F32C8108982D
:10C6E0001BB0BDE8F08F252940F0CC804FF0000B47
:10C6F000294611F8013B2D2B18D012D8232B1CD022
:10C700002B2B17D00024294611F8013BA3F1300050
:10C71000092815D80A2202FB0433A3F130040D4680
:10C72000F1E7302BEED14BF0020B01E04BF0010BA7
:10C730000D46DDE74BF0040BFAE74BF0080BF7E78B
:10C740002E2B39D16B782A2B21D13368191DD3F8C0
:10C750000090316002350127284610F8011B01F0D6
:10C76000FB0CBCF1680F0546F7D078290BD86F2970
:10C7700026D8632900F082803AD8252900F08280EB
:10C78000582900F0AE80089B002BA1DAA3E74FF0F8
:10C7900000090D464F464FF00A0C284610F8011BC1
:10C7A000A1F1300EBEF1090FD6D80CFB0911A1F191
:10C7B000300905460127F0E74FF000094F46CBE767
:10C7C00070390829DFD801A050F821F027C90000EE
:10C7D00087C7000087C70000F3C8000087C70000B4
:10C7E000D1C8000087C7000087C70000E3C8000069
:10C7F0006429C8D131680F68081D87EAE771306085
:10C80000A1EBE7714FF001080A2009293EDCC84579
:10C8100038BFC8462CB1002F02DB1BF0040F00D03C
:10C82000013C1BF0020F02D0B9F1000F04D01BF045
:10C83000010F01D17CBB002408990029A3DB002F44
:10C8400035DA7F422D2105A8FFF7ABFE08990029B4
:10C8500099DB0BF00301022904D1B9F1000F01D1DA
:10C8600054BB0024089900298DDBCDE9004B4B46D1
:10C870000A22394605A8FFF7B3FE84E733681A1D7C
:10C880001978326005A8FFF78CFE7CE708F10108F3
:10C89000B1FBF0F1B9E74445CED9202105A8FFF757
:10C8A00080FE0899002904F1FF34C3DAC4E71BF0C5
:10C8B000040FCED02B21C6E74445D3D9302105A89B
:10C8C000FFF76FFE0899002904F1FF34C8DAC9E7C1
:10C8D0003168081D3060CDE9004B4B460A220968DB
:10C8E000C8E73168081D3060CDE9004B4B46102287
:10C8F000F5E73268111D316014680CB9134C00273C
:10C9000014F8011B00293FF43EAF1FB1B9F1000F2D
:10C910003FF439AF05A8FFF744FE089A002A09F151
:10C92000FF39EDDA2FE731680B1D33600022082351
:10C93000CDE90032DBE7079C24B10398224651463B
:10C94000FFF706FE2C440894C9E600BF133102002D
:10C950000EB403B503AB01AA53F8041B0193FFF710
:10C96000A7FE02B05DF804EB03B07047044903462C
:10C97000184613F8012B12B18A5C1207F8D47047DD
:10C9800005D102002DE9F047DFF83C90DFF83CA02C
:10C990000E4604460027A04614F8015B5DB126B19F
:10C9A0002946304610F0E6FE28B93FB129464846F0
:10C9B00010F0E0FE10B14046BDE8F0871AF80570AF
:10C9C00007F00807E7E700BF1A31020005D10200AF
:10C9D00010B5044611F0D4FE0749231800209C42EC
:10C9E00004D213F8012C8A5C120701D4204610BD32
:10C9F00003F8010DF3E700BF05D102002DE9F04F68
:10CA0000D1B0CDE9010190460021322204A8994617
:10CA100011F022FF3222002111A811F01DFF002584
:10CA20002F461EAE029A019BC8213046984718B97E
:10CA3000284651B0BDE8F08F0137012F0BD19DF88A
:10CA40007830EF2B07D19DF87930BB2B03D19DF8BF
:10CA50007A30BF2B2AD03046FFF7BAFFFFF786FFA8
:10CA600003780393194604463D4810F083FE039B68
:10CA700082460028D6D19DF84420D2B1002BD1D0D7
:10CA8000B44269D901462046FFF77CFF03780BB119
:10CA900080F800A02046FFF79BFF234611AA04A9B7
:10CAA0004846C0472843BDD13D46BBE70DF17B005A
:10CAB000D2E75B2B17D12B49601CFFF763FF03788C
:10CAC0005D2B45D10023037004A914F8012F22B176
:10CAD0000133312B01F8012BF7D104A90022CA54EC
:10CAE0008DF844209EE7002B9CD01F492046FFF77D
:10CAF00049FF02783D2A034601D03A2A28D19A46B6
:10CB00004FF0000B0AF801BB2046FFF761FF5946C2
:10CB100004465046FFF736FF02780AB180F800B0AD
:10CB20005046FFF723FF0390FFF752FF039B11A826
:10CB30000022A15C21B10132312A00F8011BF8D199
:10CB400002F5A0726A44002102F8FC1C2246A6E706
:10CB5000002D7FF467AFA7E75B2BC6D1ABE700BF23
:10CB60001C310200523302001F310200F0B5CF0821
:10CB70004C0718BF0137A3B1B42B12D016460D468F
:10CB8000094C2181BDF81410A181E3810221002309
:10CB900020606281E1826782A2822382A680E58092
:10CBA000F0BD0E461546EBE700990020014B1860DA
:10CBB000704700BF00990020434B30B49C888442EA
:10CBC00002D3DC888C4203D230BC404811F092BCC6
:10CBD000DC89B42C1AD004D88CB15A2C0AD030BCC1
:10CBE0007047B4F5877FFAD15C89013C241A084666
:10CBF000A1B204E01C89013C641A0146A0B21C8A5F
:10CC0000032CECD8DFE804F00F0B2D291C89013C24
:10CC1000201A5C89013C611A80B289B2EFE71C8955
:10CC2000013C201A80B21C898442CDD35C898C429D
:10CC3000CAD3DC8A022C1ED15D8AC0F3CF0401FB6B
:10CC400005411C6800F00700635C7AB96FF0800250
:10CC500042FA00F003406354C1E71C89013C201AEA
:10CC600080B25C89013C611A89B2DCE7802242FA19
:10CC700000F00343EFE7042C13D15D8AC0F38F0467
:10CC800001FB05411C6800F00300655C40006FF08B
:10CC9000C003034102F003022B40920102411343FF
:10CCA000D9E7072C9BD15D8AC0F34F0401FB0541F6
:10CCB0001C6800F00100655C80006FF0F003034128
:10CCC0002B401201EAE700BF009900202231020048
:10CCD0002DE9F74FDFF8F0801746B8F804208242BC
:10CCE0001C4606469DF830300D4603D3B8F80620A2
:10CCF0008A4211D2314811F0FDFBB8F804203048C7
:10CD0000314613F059FFB8F806202E48294603B0E3
:10CD1000BDE8F04F13F050BF012B49D14FEA440852
:10CD200008F1FF384FF00009031B0FFA89FBC345D8
:10CD30001FFA89F022DB03B0BDE8F08F06EB0B0190
:10CD400005EB020C091BACEB040C51EA0C0112D4EC
:10CD5000291B11FA82F11FFA82FA89B23A4601932D
:10CD60000090FFF729FFDDE900030AF1010A0FFA3D
:10CD70008AF24245E2DB09F10109D6E718440022B4
:10CD800080B2F6E706EB080A4FF000091FFA8AFAAC
:10CD900005EB09013A4689B2504609F10109FFF74E
:10CDA0000BFF4C45F4DC08F101084445EADCC2E71E
:10CDB0004FF000084D1E461EF7E700BF403102004D
:10CDC000783102009C310200009900202DE9F04FDB
:10CDD0008BB01F46BDF8503008939DF85430039334
:10CDE0009DF858300493384B16469A8882428B46F9
:10CDF00006D3DB888B4203D3B24201D3BB4205D2B8
:10CE000032480BB0BDE8F04F11F074BBA6EB000840
:10CE1000A7EB0109B8F1000FB8BFC8F10008B9F1DC
:10CE2000000FB8BFC9F10009C9F100030593B04272
:10CE30002CBF4FF0FF3301230693B9422CBF4FF0B4
:10CE4000FF3301230793A8EB09050024049B04F199
:10CE5000010A012B5FFA8AFA29D10323BAFBF3F402
:10CE600004EB4404AAEB040414F0FF041FD1049B58
:10CE70000093FF22039B09905946FFF729FF059B6A
:10CE80000998B3EB450F09DC86421AD0069BA5EB47
:10CE900009051844B8EB450F80B2D7DB5F4510D0C9
:10CEA000079B0BEB030145441FFA81FBCEE70123EF
:10CEB0000093089A039B09905946FFF709FF5446CF
:10CEC000DDE70BB0BDE8F08F00990020C131020012
:10CED0002DE9FF471F462D4BBDF83080B3F804C045
:10CEE0009DF834909DF838A0844506460C461546BA
:10CEF00006D3DB888B4203D3944501D3BB4205D2D2
:10CF0000234804B0BDE8F04711F0F4BABAF1000FBD
:10CF100013D04FF0000ABC4202D304B0BDE8F08742
:10CF200023462146CDE9019ACDF800802A463046B5
:10CF30000134FFF74BFFA4B2EDE70B46CDE9019AB0
:10CF4000CDF80080FFF742FF3B463246214630468F
:10CF5000CDE9019ACDF80080FFF738FF23462A4635
:10CF600039462846CDE9019ACDF80080FFF72EFF1B
:10CF70003B46324639462846CDE90D9ACDF83080F9
:10CF800004B0BDE8F047FFF721BF00BF00990020C3
:10CF9000433202002DE9F04F85B01C46BDF8383011
:10CFA0000193BDF83C3002932D4B0E469988814287
:10CFB000054602D3DB88B34205D22A4805B0BDE856
:10CFC000F04F11F097BAA18811F0070318BF0123A1
:10CFD00003EBD103E188203A4A4321684FF000086F
:10CFE00002FB031AE2881FFA88F7BA4232D805B06A
:10CFF000BDE8F08F80239AF8002000F0070B43FA79
:10D000000BF1029B0A404FF6FF718B421AD132B1ED
:10D01000F1192844019A89B280B2FFF7CDFDBBF126
:10D02000070F08BF0AF1010A09F10109A2881FFAD6
:10D0300089F09042DED3530718BF0AF1010A08F1C4
:10D040000108CFE7284480B212B1019A0399E4E7BE
:10D05000029AFBE7F21993B24FF000090393E5E758
:10D0600000990020F83102002DE9F04FDFF88090A0
:10D070008846B9F8041085B08142BDF838A0BDF8E3
:10D080003CB007460CD3B9F80610414508D3561EEC
:10D090004446054616F8012F42B905B0BDE8F08FA9
:10D0A000124805B0BDE8F04F11F024BA9888B9F8DD
:10D0B00004C0D988039328446045C8BF6418B9F8F0
:10D0C0000600C8BFA4B22144C8BF3D468142C4BFC8
:10D0D0003D4644462846CDE900AB2146FFF75AFFBE
:10D0E000039B9A882A4495B2D4E700BF2F320200EE
:10D0F00000990020F0B50B4C0023A18A9AB291420E
:10D100000DD8F0BD91B205FB06112568475C6F5440
:10D110000132658A91B28D42F4D80133EDE70022E5
:10D120009EB2F6E7009900202DE9F04F85B01D462C
:10D1300001924FEAD5086A07BDF838B09DF83C3037
:10D140000746894618BF08F1010800245C4526D22D
:10D15000019AA118002608FB047A89B215E0C208DA
:10D1600000F0070C1AF8022002FA0CF202F080021A
:10D170008BB1B2FA82F25209484480B20393029111
:10D18000FFF71AFDDDE902130136AE42B0B2E6D177
:10D190000134A4B2DAE7003A18BF0122ECE705B087
:10D1A000BDE8F08F0048704798AB002000487047FA
:10D1B0001899002007B5002000905A234FF494726C
:10D1C0008021FFF7D3FC4FF49452FF21054811F062
:10D1D00043FB05484FF49452FF2103B05DF804EB84
:10D1E00011F03ABB1899002098AB00202DE9F041CE
:10D1F0001F463C4BDFF8F0809B6940450CBF03F4B1
:10D20000807303F4007304460E4615467BB900F0A4
:10D210005FFDB0FBF5F2B2F5803F50D3012340F63D
:10D22000FF7101338B420CD14FF6FF750EE0FBF717
:10D230000DFB444502D100F039FCEAE700F062FC46
:10D24000E7E7B2FBF3F5B5F5803FEAD205FB03F261
:10D25000013B6361B0FBF2F06B1E012206FA02FE95
:10D26000626023634FF0031303FA0EF30EF1100113
:10D270004FF0020CDB430CFA01FC143617B37D436C
:10D280006427B5FBF7F5013D44F82650D4F8B050BB
:10D290001D40C4F8B050D4F8B05002FA01F129434F
:10D2A000C4F8B010D4F8B4201340C4F8B430D4F8A3
:10D2B000B43043EA0C03C4F8B430BDE8F08115463D
:10D2C0000123C3E744F82670D4F8B0101940C4F81D
:10D2D000B010D4F8B01002FA0EF20A43C4F8B0202D
:10D2E000E0E700BF0002004000A005400123036208
:10D2F0007047036A23F0010303627047D0F8D83007
:10D300000B43C0F8D8307047D0F8D83023EA010377
:10D31000C0F8D830704700002049DFF888C02DE9F8
:10D32000F041441A61426141DFF87CE01C4E034643
:10D3300049004FF08055012763451FD0734514BF46
:10D340000A4601221C68186820F00E001860186A4E
:10D3500010F4004004F00E0412D116F81280B8F157
:10D36000000F0DD106F812701A68022842EA040272
:10D370001A6001D1013DDFD1BDE8F0810022E1E773
:10D38000D3F88000000406D406EB4202507810B9AE
:10D3900057700120E8E70220E6E700BF00200A40BE
:10D3A00018BE002000000A4000100A4030B54D1C95
:10D3B00001FB00040D4894FBF0F4641914D0092C0F
:10D3C00028BF08241C600C1B102C83BF10201039B0
:10D3D0001060146088BF19601B684FF47A72EB1AF2
:10D3E000534393FBF5F030BD0124EBE718FCFFFF3E
:10D3F000012910B51BD8104B984219D003F5805362
:10D40000984217D003F58053C21A534253415B0030
:10D410000268046824F00E040460084C04EB430323
:10D4200000245C54016802F00E030B43036010BD3E
:10D430000023EDE70123EBE700000A4018BE0020BF
:10D440000268064B22F041021B6802600268D207A4
:10D4500000D47047002BFCD0013BF7E7E41100201B
:10D460000F2994BFD0F82021D0F824214FF00103D8
:10D4700088BF103903FA01F0104070472B4B10B5EC
:10D480001C680023026A12043DD443680A6823F032
:10D49000080343608B68002A3BD1026341F6FC72AB
:10D4A00002EA830343634B68002B39D0436B43F498
:10D4B00000534363836B0A7B23F00F03134383639F
:10D4C000B1F80D30C363B1F80F300364B1F8113017
:10D4D0004364B1F813308364036A23F400430362A6
:10D4E000036A13F400431FD1026A42F4004202624D
:10D4F0000F4A016A090402D501339342F9D1981AFF
:10D5000018BF012010BD01339C42BBD24FF0FF3049
:10D51000F8E79AB2C3F30C43026343F48043C1E7D4
:10D52000436B23F40053C4E70020EBE7E411002031
:10D53000FFFF0F000346D0F8980010F4004010B52C
:10D540003AD05A6822F010025A603322C3F884207D
:10D55000D3F8942012F480422FD10A60D3F894209B
:10D56000C2F38A028A60D3F8942082F40052C2F394
:10D5700040324A60D3F8982002F00F020A73D3F8C1
:10D580009C204A73D3F89C20120A8A73D3F8A020F7
:10D59000CA73D3F8A020120A0A74D3F8A4204A74DC
:10D5A000D3F8A420120A8A74D3F8A820CA74D3F836
:10D5B000A8301B0A0B75012010BD0122D3F894403E
:10D5C0000A60034AD3F8900002EA04420243C9E722
:10D5D0000000FF1F2DE9F0410E469DF8187005462A
:10D5E00090461C46FFF798FE0228014635D060237E
:10D5F00003FB0053F3225A62B8F1000F22D141F627
:10D60000FC7202EA840242F40042C3F830805A639A
:10D61000602303FB01524FF4A0509063906BCFB195
:10D6200040F0800003FB0153906301360022DA636F
:10D6300028461A645A649A641E62FFF7D9FE0120D4
:10D64000BDE8F081A2B2C4F30C4444F440441A6330
:10D650005C63DDE720F08000E4E70020F0E70000F5
:10D660002DE9F0411C462F4B05461E680F4690469B
:10D67000FFF7F6FE10B90020BDE8F0812846FFF75D
:10D680004BFE02280146F6D06B6823F010036B6056
:10D690006023B8F1000F03FB01530CBF7B207F20F8
:10D6A0000137586276001F62186A020428D45A6B48
:10D6B00012F480422DD15B6B2260C3F38A03A36016
:10D6C000602303FB015328469A6B02F00F0222737A
:10D6D000DA6B6273DA6B120AA2731A6CE2731A6C59
:10D6E000120A22745A6C62745A6C120AA2749A6CEE
:10D6F000E2749B6C1B0A2375FFF77AFE0120BBE7DF
:10D700002EB92846FFF774FE4FF0FF30B4E7013E14
:10D71000CAE70122586B22601A6B034B03EA0043ED
:10D720001343CCE7E41100200000FF1F2DE9F04F68
:10D73000412387B0036000260546CDE904660C4608
:10D74000FBF784F8534B9D4204D003F500539D42F0
:10D7500040F08C80504B5B6B03F0070301229A4032
:10D76000D3174E49086800210FF06EFB4C4B9C42CA
:10D77000CDE9010100F285804A4B9C4200F2828093
:10D78000494B40F26B369C4288BF4FF448764FF4C9
:10D790007A730027DFF81CB103934FF0310900972B
:10D7A0004FEA59020023DDE9010102F1010A02FBFF
:10D7B00004420FF049FB09F00108804408F1FF33EF
:10D7C000B3F5806F25D208FB0AF2DDE90101D3171A
:10D7D0000FF03AFBA4EB000ABAF1000FB8BFCAF190
:10D7E000000ADA4515DC84424FEA690B4DD105ABDE
:10D7F00004AA59463046FFF7D9FD039A331A48BFA9
:10D80000831B934243DC03934746CDF800B02BB112
:10D81000D34609F1FF39B9F1050FC1D1009905AB24
:10D8200004AA3046FFF7C2FDDDE90441631E481E2D
:10D830001B0243EA0033081E18BF01207A1E43EA88
:10D84000801302F03F000343C2F38312EB602846CB
:10D85000AA612144FFF7F4FD01FB0772D317DDE94C
:10D8600001010FF0F1FA07B0BDE8F08F0F4B9D42B8
:10D8700004D1094B5B6BC3F302136FE701223346FC
:10D880006FE70B4C40F2EE2681E75346BCE74FF0C2
:10D89000000BBEE700000A4000020040E411002037
:10D8A0003F420F0000350C0020A1070000100A4085
:10D8B00040420F0000CA9A3B38B515460446FFF7B0
:10D8C00035FF012D05D1236843F080032360042335
:10D8D000636138BD70B50E4605461446FFF71CFD62
:10D8E000022801463ED0602303FB00532068F32248
:10D8F0005A62A26860BB186341F6FC7000EA8202BB
:10D9000042F420425A636268602303FB01532AB346
:10D910005A6B42F400525A63602303FB0153B4F87C
:10D920000D20DA63B4F80F201A64B4F811205A6499
:10D93000B4F813209A64227B42F4084242F0800239
:10D9400001369A6328461E62FFF752FD012070BD22
:10D9500090B2120C186342F46042D3E75A6B22F47F
:10D960000052D8E70020F2E7154B70B50D461E684F
:10D970000446FFF7D1FC022801461ED0636823F05D
:10D9800008036360602303FB00430C2201355A62E5
:10D990001D62186A020407D48420586220461D6262
:10D9A000FFF726FD012005E02EB92046FFF720FDF8
:10D9B0004FF0FF3070BD013EEBE70020FAE700BFFB
:10D9C000E4110020036801F00E0123F00E030B4365
:10D9D000036070472DE9F743044698464FF080579F
:10D9E000D6B2CDB24FF00109CDF800904346324691
:10D9F00029462046FFF7EEFD08B1012001E0013F76
:10DA0000F2D103B0BDE8F08338B543690D46016833
:10DA10000906044607D55B0705D51146FFF72EFD1D
:10DA200020EAE07038BD29462046FFF753FF002862
:10DA3000F8D029462046FFF797FF0120F2E730B4DF
:10DA40001346426905682D06044605D5520703D5DD
:10DA500030BC1946FFF76EBD2046012230BCC9B26A
:10DA6000FFF7FEBD38B505460C46FFF755FC02280A
:10DA700001464FF0600314BF0146002103FB015330
:10DA800001340C225A6228461C62BDE83840FFF778
:10DA9000AFBC0000034B1868034B10F0010018BF27
:10DAA0001846704700020040001BB70008B5FAF79F
:10DAB000CDFE124B12495A6B12F0070F01D10868C4
:10DAC00008BD5A6B086802F00702012A01D140081C
:10DAD000F6E75A6B02F00702022A01D18008EFE74D
:10DAE0005A6B02F00702032A01D1C008E8E75B6B1A
:10DAF00003F00703042B08BF0009E1E70002004020
:10DB0000E411002008B5FAF7A1FE124B12495A6B36
:10DB100012F0700F01D1086808BD5A6B086802F056
:10DB20007002102A01D14008F6E75A6B02F0700229
:10DB3000202A01D18008EFE75A6B02F07002302AE8
:10DB400001D1C008E8E75B6B03F07003402B08BF0E
:10DB50000009E1E700020040E411002008B5FAF7EF
:10DB600075FE014B186808BDE411002010F47F3FDA
:10DB700070B51ED04FF0804300F44024D3F8F45128
:10DB8000EDB2012D4FEA904328D1B4F5002F28D1F2
:10DB90001B4B1C4D00F01D041D2C18BF2B461C6890
:10DBA000C0F38725C0F34416B54024EA0504224398
:10DBB0001A6010F0606F10D0C0F3017303F180534E
:10DBC00084339B00C0F342641A68C0F3045004FA23
:10DBD00000F022EA00021143196070BDB4F5002F75
:10DBE00009D0B4F5402F08D003F0030303F18053AC
:10DBF00088339B00D3E7034BD1E7034BCFE700BF4C
:10DC0000280200402C02004030020040024A136803
:10DC100003431360704700BF00020040830F9B0066
:10DC200003F1804300F01F00D3F804120122824068
:10DC30000A43C3F804227047024A136C43F480334A
:10DC400013647047000200400B4B024618680B4BF0
:10DC500010B500210A4C19604008216D32EA01011B
:10DC600002D138B9012001E00138F6D14FF0FF327E
:10DC70001A6010BD0120FCE7E411002020BE002046
:10DC800000020040F8B5114C276D236843F00403EF
:10DC90000546236010200E46FFF7D6FF236943F0A8
:10DCA00007032361236A23F00F03334323622369AD
:10DCB00023F007032B432361FAF7C8FDFB065EBF81
:10DCC000236823F004032360F8BD00BF0002004076
:10DCD00082B0104B0193104B1B6C13F4A02F15D185
